:020000040800F2
:1000000080590020E1010008514300084F3F0008DB
:100010004D430008AD070008435C000800000000E5
:10002000000000000000000000000000490100087E
:100030004D080008000000008D010008714800080C
:10004000FB010008FB010008FB010008FB010008A0
:10005000FB010008FB010008FB010008FB01000890
:10006000FB010008FB010008FB010008FB01000880
:10007000D1070008E1070008F1070008010800089F
:1000800011080008FB010008FB0100086D5B000877
:10009000855B0008B1070008C1070008FB010008E4
:1000A000FB010008FB010008FB010008FB01000840
:1000B000FB010008FB01000841490008FB010008A2
:1000C000FB010008FB010008FB010008FB01000820
:1000D000FB010008AD500008C1500008D5500008D1
:1000E000FB010008FB010008FB010008FB01000800
:1000F000FB010008FB010008FB010008FB010008F0
:10010000FB010008FB010008FB010008FB010008DF
:10011000FB010008FB01000875490008FB0100080D
:10012000FB010008FB010008FB010008FB010008BF
:10013000DFF810D000F028FB004800475975000890
:10014000AFF3008080590020224B19680868B0E89E
:10015000F00F80F30988BFF36F8F4FF0000080F33A
:1001600011884EF00D0E7047000000000648006830
:10017000006880F3088862B661B6BFF34F8FBFF3A3
:100180006F8F00DF00BF00BF08ED00E0EFF30980D4
:10019000BFF36F8F0F4B1A6820E9F00F106008B59E
:1001A0004FF0500080F31188BFF34F8FBFF36F8F74
:1001B00009F026F94FF0000080F31188BDE80840EF
:1001C00019680868B0E8F00F80F30988BFF36F8FF3
:1001D000704700BF18000020EFF305807047000053
:1001E0000648804706480047FEE7FEE7FEE7FEE7D1
:1001F000FEE7FEE7FEE7FEE7FEE7FEE72749000829
:1002000031010008202A04DB203A21FA02F0002103
:10021000704721FA02F3D040C2F120029140084316
:100220001946704740EA01039B0703D009E008C95B
:10023000121F08C0042AFAD203E011F8013B00F8AB
:10024000013B521EF9D27047D2B201E000F8012BF7
:10025000491EFBD270470022F6E710B513460A4646
:1002600004461946FFF7F0FF204610BD421C10F867
:10027000011B0029FBD1801A7047034611F8012B9E
:1002800000F8012B002AF9D1184670472DE9FE4FDE
:10029000804681EA0300C00F0C46009021F0004127
:1002A00023F00045B8EB0200A94105D240462146A3
:1002B00090461C460B46024623F00040104347D0B0
:1002C000270DC7F30A00C3F30A510290401A0190A8
:1002D00040286BDAC3F3130040F4801B0098924669
:1002E00020B10023D2EB030A63EB0B0B01985946B4
:1002F000C0F14002504600F098F906460D465046BF
:100300005946019A00F0A0F910EB08006141002461
:1003100087EA115284EAE7731A4340D0009A62B325
:10032000019A012A4FEA075215DC001B61EB02011A
:100330004FF0004202EA0752CDE90042001C41F5AD
:10034000801132462B4600F0A0F903B0BDE8F08FD3
:1003500040462146F9E7001B61EB0201001C41F514
:10036000801300185B412018A2F5001747EB03012A
:1003700040EAD570B6196D4111E06D084FEA3606B6
:1003800045EAC0754FEA0752001B61EB0201001CF1
:1003900041F5801149084FEA3000001951413246B9
:1003A0002B4603B0BDE8F04F00F060B90098012281
:1003B00040000023D0EB020263EBE073009821467B
:1003C0004FEAE074B8EB000061EB0401E9E783F069
:1003D00000435BE781F0004158E72DE9FE4F81EAD9
:1003E000030404F0004421F0004100944FF0000B9E
:1003F00023F0004350EA01045ED052EA03045BD0CC
:10040000C3F30A54C1F30A552C44A4F2F334019403
:10041000A0FB0254C1F3130141F48011C3F3130391
:1004200043F4801301FB024400FB034E840A970A45
:1004300044EA815447EA8357A4FB076802958D0A72
:1004400005FB07854FEA932C04FB0C542705029DFE
:100450004FEA065847EA1637B5EB08056EEB070C6E
:10046000870E920E47EA811742EA8312A7FB020128
:10047000B6EB0B0164EB00042B0D43EA0C335E1862
:1004800044EB1C50DA465146E7FB0201C5F3130466
:100490004FEA0B3343EA14534FEA0432019C43EA18
:1004A0000603A4F10C040294009CCDE900B400F012
:1004B000ECF803B0BDE8F08F00200146F9E72DE924
:1004C000F04D81EA030404F0004B21F0004514468E
:1004D0004FF0000A23F0004150EA050220D054EA10
:1004E00001021DD0C5F30A570246C5F31303C1F339
:1004F0001300C1F30A5640F4801543F48013A7EBB0
:100500000608101BD64608F2FD3873EB050002D32F
:1005100008F1010801E092185B41B8F1000F03DA1D
:1005200000200146BDE8F08D00204FF48011064602
:1005300084460EE0171B73EB050705D3121B63EB14
:10054000050306434CEA010C49084FEA30009218B3
:100550005B4150EA0107EDD152EA030012D082EA72
:10056000040083EA0501084305D0101BAB4106D205
:100570000122002306E000224FF0004302E06FF06A
:10058000010253101AEB06004CEB085110EB0A0065
:1005900041EB0B01BDE8F04D00F068B830B50B46FB
:1005A000014600202022012409E021FA02F59D42A3
:1005B00005D303FA02F5491B04FA02F52844151E77
:1005C000A2F10102F1DC30BD2DE9F05F054600200B
:1005D00092469B4688460646814640241BE02846B4
:1005E000414647462246FFF70DFE53465A46C01A7B
:1005F000914110D311461846224600F016F82D1AE4
:1006000067EB01084F4622460120002100F00DF85B
:1006100017EB00094E41201EA4F10104DFDC48461F
:1006200031462A464346BDE8F09F202A04DB203AA3
:1006300000FA02F1002070479140C2F1200320FA35
:1006400003F3194390407047202A06DBCB17203A6A
:1006500041FA02F043EAE07306E041FA02F3D040C7
:10066000C2F12002914008431946704710B5141E8C
:1006700073F1000408DA401C41F1000192185B415B
:100680001A4301D120F0010010BD2DE9F04D924632
:100690009B4611B1B1FA81F202E0B0FA80F2203249
:1006A0009046FFF7C2FF04460F4640EA0A0041EABF
:1006B0000B0153465A46084313D0114653EA010032
:1006C00019D0C8F140025046FFF79CFD05460E4682
:1006D000504659464246FFF7A8FF084305D001207F
:1006E00004E020463946BDE8F08D0020054346EA87
:1006F000E0762C4337430A986305E40AA0EB080030
:100700000022FD0A44EA47540A3002D5002001467F
:10071000E9E7010510196941DDE90845001969415A
:10072000BDE8F04DA2E7C1F30A52C1F3130140F254
:10073000FF3341F480119A4202DA002001467047EB
:1007400040F233439A42A2F2334202DC5242FFF7B4
:1007500059BDFFF76ABF000030B5041E71F10004F7
:1007600004DB4FF00044404264EB0101141E73F1BE
:10077000000405DB1C464FF00043524263EB0403C8
:10078000994208BF904230BD064C074D06E0E06834
:1007900040F0010394E8070098471034AC42F6D3C8
:1007A000FFF7CAFC3CA200085CA2000800BFFEE7FD
:1007B00010B5024800F081FA10BD0000DC000020F6
:1007C00010B5024800F079FA10BD0000DC000020EE
:1007D00010B5024800F040FE10BD0000E403002008
:1007E00010B5024800F038FE10BD0000A003002044
:1007F00010B5024800F030FE10BD000018030020C4
:1008000010B5024800F028FE10BD0000D402002000
:1008100010B5024800F020FE10BD00005C0300206F
:1008200030B590F840500124AC40C56B6C60046852
:1008300063604468102C04D10468A2600468E1601D
:1008400003E00468A1600468E26030BD704772B6DE
:1008500000BFFEE710B5024692F82030012B01D010
:10086000022B06D1106840690843146860610020BB
:1008700010BD506A40F4802050620120F8E7F0B5C6
:1008800004460D461E4694F8207020688368A868C8
:1008900000B900E000BF012F01D0022F7DD103F08D
:1008A000806030B903F0006018B903F08050002870
:1008B0007ED0C3F30161012088403060A86860B930
:1008C000B5F800C0E86840EA4C5C206800F5C070EC
:1008D00000EB0110C0F800C00FE0D5E901C040EA0C
:1008E000CC00D5F80CC040EA0C00D4F800C00CF5E0
:1008F000C07C0CEB011CCCF80000D5F810C02068BF
:1009000000F5C07000EB0110C0F804C0287D01287C
:100910000ED1206800F5C07000EB0110406840F473
:10092000807C206800F5C07000EB0110C0F804C0A6
:10093000D079000692F806C040EA0C4092F805C053
:1009400040EA0C2092F804C040EA0C00D4F800C041
:100950000CF5C07C0CEB011CCCF80C00D078000628
:1009600092F802C040EA0C4092F801C040EA0C2024
:1009700092F800C040EA0C00D4F800C00CF5C07C2E
:100980000CEB011CCCF80800206800F5C07000EBEF
:100990000110006840F0010C01E00FE008E0206861
:1009A00000F5C07000EB0110C0F800C00020F0BDE1
:1009B000606A40F4001060620120F8E7606A40F469
:1009C000802060620120F2E7F0B504460A46216803
:1009D00094F82050012D01D0022D74D1D1F80002DD
:1009E00040F00100C1F80002107D00F01F06012058
:1009F00000FA06F3D1F81C029843C1F81C02D06932
:100A0000C8B9D1F80C029843C1F80C02908880B2A2
:100A1000968940EA064601F51070576940F837603C
:100A2000108880B2168940EA064601F510705769B1
:100A300000EBC7004660D069012819D1D1F80C023B
:100A40001843C1F80C02908880B2168840EA064626
:100A500001F51070576940F83760908980B21689A7
:100A600040EA064601F51070576900EBC700466082
:100A7000906928B9D1F804029843C1F8040204E04F
:100A8000D1F804021843C1F80402106928B9D1F85A
:100A900014029843C1F8140204E0D1F81402184378
:100AA000C1F81402106A012804D1D1F81C021843BD
:100AB000C1F81C02D1F8000220F00100C1F80002C8
:100AC0000020F0BDFFE7606A40F4802060620120F2
:100AD000F7E7000010B504460348844202D10348FA
:100AE00005F086FF10BD0000DC000020543F002010
:100AF00070B5044694F82050012D01D0022D7DD10F
:100B000051B92068C06800F0030080B9606A40F401
:100B100000106062012070BD2068006900F00300D1
:100B200028B9606A40F4001060620120F3E7206891
:100B300000F5D87000EB0110006800F00400906030
:100B4000906840B9206800F5D87000EB011000688B
:100B5000400D106007E0206800F5D87000EB011030
:100B60000068C0085060206800F5D87000EB0110E4
:100B7000006800F00200D060206800F5D87000EB3B
:100B80000110406800F00F00082802D3082010610F
:100B900008E0206800F5D87000EB0110406800F014
:100BA0000F001061206800F5D87000EB011040685C
:100BB00000F47F40000A9061206800F5D87000EBD7
:100BC00001104068000C5061206800F5D87000EBFF
:100BD000011080681870206800F5D87000EB0110D3
:100BE000806800F47F40000A5870206800F5D870D3
:100BF00000EB0110806800F47F0000E03CE0000C96
:100C00009870206800F5D87000EB01108068000E25
:100C1000D870206800F5D87000EB0110C06818711A
:100C2000206800F5D87000EB0110C06800F47F4028
:100C3000000A5871206800F5D87000EB0110C068F8
:100C400000F47F00000C9871206800F5D87000EB6C
:100C50000110C068000ED87131B92068C06840F03A
:100C600020002668F06005E02068006940F0200060
:100C70002668306100204EE7606A40F480206062A0
:100C8000012048E70146002091F82020012A01D0E8
:100C9000022A11D10B689B6803F0806303B1401CEA
:100CA0000B689B6803F0006303B1401C0B689B68F2
:100CB00003F0805303B1401C70472DE9F05F0446F8
:100CC0000025206846692068D0F80490206887686D
:100CD0002068D0F80CA02068D0F810B02068D0F8B8
:100CE000188006F00100002855D007F00100C0B1BF
:100CF00001202168886007F0020018B1204600F04A
:100D00007DFA0EE007F0040010B145F4006508E03C
:100D100007F0080010B145F4805502E0204600F0CD
:100D20006BFA07F48070C8B14FF480702168886056
:100D300007F4007018B1204600F070FA0EE007F4D6
:100D4000806010B145F4005508E007F4006010B170
:100D500045F4804502E0204600F05EFA07F480305A
:100D6000C8B14FF480302168886007F4003018B1B2
:100D7000204600F063FA0EE007F4802010B145F43D
:100D8000004508E007F4002010B145F4803502E08A
:100D9000204600F051FA06F0080038B10AF01000C1
:100DA00020B145F4007510202168C86006F00400E9
:100DB00040B10AF0080028B108202168C860204628
:100DC00000F0CCF906F0020038B12068C06800F0ED
:100DD000030010B1204600F0C3F906F0400038B11E
:100DE0000BF0100020B145F48065102021680861E7
:100DF00006F0200040B10BF0080028B1082021685F
:100E00000861204600F0C6F906F0100038B12068ED
:100E1000006900F0030010B1204600F0BCF906F4B0
:100E2000003040B109F0100028B11020216848605E
:100E3000204600F0B1F906F4803040B109F0080016
:100E400028B1082021684860204600F005FA06F421
:100E5000004088B309F0040078B306F4807020B134
:100E600008F0010008B145F0010506F4007020B15A
:100E700008F0020008B145F0020506F4806020B1D8
:100E800008F0040008B145F0040506F40060A0B1C4
:100E900008F0700088B108F07000402817D006DC18
:100EA00010280BD020280CD0302819D10CE0502865
:100EB00010D0602814D110E01DE019E045F00805BD
:100EC0000FE045F010050CE045F0200509E045F085
:100ED000400506E045F0800503E045F4807500E03C
:100EE00000BF00BF2068806920F070002168886121
:100EF0000420216848602DB1606A28436062204662
:100F0000FFF7E8FDBDE8F09F70B504460CB901207D
:100F100070BD94F8200010B9204600F0AFF82068AA
:100F2000006840F001002168086000F0DFFE05461F
:100F30000DE000F0DBFE401B0A2808D9606A40F48F
:100F400000306062052084F820000120E0E720687E
:100F5000406800F001000028EBD02068006820F015
:100F600002002168086000F0C1FE05460DE000F0B7
:100F7000BDFE401B0A2808D9606A40F40030606258
:100F8000052084F820000120C2E72068406800F0B6
:100F900002000028EBD1207E012806D120680068DD
:100FA00040F080002168086005E02068006820F0BB
:100FB000800021680860607E012806D120680068F2
:100FC00040F040002168086005E02068006820F0DB
:100FD000400021680860A07E012806D120680068D2
:100FE00040F020002168086005E02068006820F0DB
:100FF000200021680860E07E012806D12068006892
:1010000020F010002168086005E02068006840F0CA
:10101000100021680860207F012806D12068006840
:1010200040F008002168086005E02068006820F0B2
:10103000080021680860607F012806D120680068E8
:1010400040F004002168086005E02068006820F096
:10105000040021680860D4E90201084321690843BB
:10106000616908436168491E08432168C86100201E
:101070006062012084F82000002049E710B586B0A6
:101080000446002002900390049005902F492068A8
:10109000884259D100BF2E48C06940F000702C49E9
:1010A000C8610846C06900F00070019000BF00BF31
:1010B00000BF0846806940F00800886108468069E2
:1010C00000F00800019000BF00BF881502900020CA
:1010D0000390049002A91F4800F058FC4FF40070E0
:1010E0000290022003900320059002A9194800F005
:1010F0004DFC00BF1849486820F4C04040F0E06053
:1011000040F48040486000BF00220521132000F019
:10111000ADFE132000F09AFE00220521142000F0FD
:10112000A5FE142000F092FE00220521152000F0FB
:101130009DFE152000F08AFE00220521162000F0F9
:1011400095FE162000F082FE06B010BD006400403F
:1011500000100240000C01400000014070470000F8
:1011600010B58AB0044601AB03AA00212046FFF760
:10117000BFFC0648844207D10548C06A20B1044834
:1011800001A9C26A03A890470AB010BDDC00002084
:10119000543F002070477047704770B5044694F87C
:1011A0002000012822D1022084F820002068006855
:1011B00020F001002168086000F098FD05460DE070
:1011C00000F094FD401B0A2808D9606A40F4003002
:1011D0006062052084F82000012070BD206840680E
:1011E00000F001000028EBD16062F6E7606A40F48D
:1011F000002060620120F0E77047000010B504464F
:101200000348844202D1034805F0F2FB10BD000000
:10121000DC000020543F00207047000010B5044659
:101220000348844202D1034805F0E2FB10BD0000F0
:10123000DC000020543F00207047000010B5044639
:101240000348844202D1034805F0D2FB10BD0000E0
:10125000DC000020543F002070470146002291F836
:101260002100022808D00420886300BF002081F8F4
:10127000200000BF012070470868006820F00E00C1
:101280000B6818600868006820F001000B6818609F
:1012900091F8403001209840CB6B5860012081F8D4
:1012A000210000BF002081F8200000BF1046E2E7C7
:1012B00070B50446002594F82100022803D00420CC
:1012C000A0630125C1E02068006820F00E002168BD
:1012D00008602068006820F00100216808605C490F
:1012E0002068884252D95A4978392068884201D109
:1012F000012047E0564964392068884201D1102016
:1013000040E0534950392068884201D1801539E0C6
:101310004F493C392068884201D1801432E04C4961
:1013200028392068884202D14FF480302AE04849A9
:1013300014392068884202D14FF4801022E04449D9
:101340002068884201D140041CE04249206888425C
:1013500001D1012016E03F4914312068884201D1B3
:1013600010200FE03B4928312068884201D18015C8
:1013700008E038493C312068884201D1801401E0FE
:101380004FF480303349091F086051E03049783903
:101390002068884201D1012047E02D496439206846
:1013A000884201D1102040E0294950392068884204
:1013B00001D1801539E026493C392068884201D1A5
:1013C000801432E0224928392068884202D14FF443
:1013D00080302AE01E4914392068884202D14FF437
:1013E000801022E01A492068884201D140041CE0A4
:1013F00018492068884201D1012016E015491431AE
:101400002068884201D110200FE01249283120685D
:10141000884201D1801508E00E493C31206888429D
:1014200001D1801401E04FF48030094980394860CF
:10143000012084F8210000BF002084F8200000BFB4
:10144000606B10B12046616B8847284670BD000074
:10145000800002400804024070B50446E06B056855
:101460002068066894F8401004208840284000282E
:1014700075D006F004000028FAD02068006800F05B
:10148000200028B92068006820F004002168086066
:10149000D5492068884254D9D34978392068884290
:1014A00001D1042049E0D04964392068884201D143
:1014B000402042E0CC4950392068884201D10015D3
:1014C0003BE0C9493C392068884202D14FF4804052
:1014D00033E0C54928392068884202D14FF4802082
:1014E0002BE0C14914392068884202D14FF48000B2
:1014F00023E0BD492068884201D1C0041DE0BB49FA
:101500002068884201D1042017E0B84914312068CE
:10151000884201D1402010E0B44928312068884237
:1015200001D1001509E0B1493C312068884202D15F
:101530004FF4804001E04FF48020AC49091F08605F
:1015400054E0A94978392068884201D104204AE052
:10155000A54964392068884202D1402043E04CE02C
:10156000A14950392068884201D100153BE09E49CD
:101570003C392068884202D14FF4804033E09A49D8
:1015800028392068884202D14FF480202BE0964908
:1015900014392068884202D14FF4800023E0924938
:1015A0002068884201D1C0041DE09049206888422B
:1015B00001D1042017E08D4914312068884201D1FF
:1015C000402010E0894928312068884201D1001567
:1015D00009E086493C312068884202D14FF48040BE
:1015E00001E04FF48020804980394860E06A00289B
:1015F00002D02046E16A8847F4E094F840100220C7
:1016000088402840002871D006F002000028FAD057
:101610002068006800F0200040B92068006820F0D1
:101620000A0021680860012084F821006E492068C2
:10163000884254D96C4978392068884201D1022007
:1016400049E0694964392068884201D1202042E09C
:10165000654950392068884201D140153BE0624914
:101660003C392068884202D14FF4005033E05E4993
:1016700028392068884202D14FF400302BE05A49C3
:1016800014392068884202D14FF4001023E05649F3
:101690002068884201D180041DE0544920688842B6
:1016A00001D1022017E0514914312068884201D14C
:1016B000202010E04D4928312068884201D1401592
:1016C00009E04A493C312068884202D14FF4005079
:1016D00001E04FF400304549091F086054E04249D9
:1016E00078392068884202D102204AE057E03E491A
:1016F00064392068884201D1202042E03A495039BB
:101700002068884201D140153BE037493C392068C8
:10171000884202D14FF4005033E033492839206821
:10172000884202D14FF400302BE02F491439206851
:10173000884202D14FF4001023E02B4920688842F0
:1017400001D180041DE029492068884201D102208E
:1017500017E0264914312068884201D1202010E08A
:10176000224928312068884201D1401509E01F49EB
:101770003C312068884202D14FF4005001E04FF420
:10178000003019498039486000BF002084F82000EB
:1017900000BFA06A30B32046A16A884722E094F8CF
:1017A0004010082088402840E0B106F00800C8B189
:1017B0002068006820F00E002168086094F840104E
:1017C00001208840E16B48600120A06384F821007B
:1017D00000BF002084F8200000BF206B10B120461D
:1017E000216B884770BD0000800002400804024061
:1017F0000146002209B9012070471E4B0868984233
:101800000BD21D4B0868C01A1423B0FBF3F0800004
:10181000086419480838C8630AE0164B0868C01AFB
:101820001423B0FBF3F08000086412480838C86342
:10183000022081F821000868026843F6F0708243B4
:10184000D1E901031843CB6818430B6918434B696E
:1018500018438B691843CB69184302430868026038
:1018600000208863012081F82100002081F82000F9
:1018700000BFC1E708040240080002402DE9F04122
:1018800004460D4616461F464FF0000800BF94F868
:101890002000012802D10220BDE8F081012084F857
:1018A000200000BF94F82100012817D1022084F8FD
:1018B00021000020A0632068006820F0010021685A
:1018C00008603B46324629462046FEF7A9FF2068BD
:1018D000006840F001002168086006E000BF0020B9
:1018E00084F8200000BF4FF002084046D4E72DE9FD
:1018F000F04104460D4616461F464FF0000800BF53
:1019000094F82000012802D10220BDE8F0810120D6
:1019100084F8200000BF94F8210001282CD1022077
:1019200084F821000020A0632068006820F00100F6
:10193000216808603B46324629462046FEF770FF84
:10194000E06A30B12068006840F00E00216808604D
:101950000BE02068006820F004002168086020681F
:10196000006840F00A00216808602068006840F0C4
:1019700001002168086006E000BF002084F8200014
:1019800000BF4FF002084046BFE700002DE9F847CE
:10199000024600239C467BE14FF0010808FA03F45D
:1019A000D1F8008008EA0400A0427DD1DFF8F4A25B
:1019B000D1F80480A8EB0A09D0453AD014DCB8F17C
:1019C000030F50D009DCB8F1000F31D0B8F1010F8E
:1019D0001CD0B8F1020F49D120E0B8F1110F18D096
:1019E000B8F1120F42D11EE0B9F5881F25D006DCF0
:1019F000B9F5803F20D0B9F5801F37D11AE0B9F58D
:101A0000001F18D0B9F5041F30D117E0D1F80CC071
:101A10002DE0D1F80C8008F1040C28E0D1F80C80FE
:101A200008F1080C23E0D1F80C8008F10C0C1EE042
:101A300000BF00BF00BF00BF00BF00BFD1F80880DB
:101A4000B8F1000F02D14FF0040C0BE0D1F8088080
:101A5000B8F1010F03D14FF0080C146102E04FF010
:101A6000080C546103E04FF0000C00E000BF00BF21
:101A7000FF2801D8904601E002F104084646FF28FD
:101A800002D84FEA830803E0A3F108084FEA880868
:101A90004746D6F800804FF00F0909FA07F928EAFF
:101AA00009080CFA07F900E07AE048EA0908C6F8E4
:101AB0000080D1F8048008F08058B8F1805F6FD1C1
:101AC00000BFDFF8E481D8F8188048F00108DFF89B
:101AD000D891C9F81880C846D8F8188008F00108CD
:101AE000CDF8008000BF00BF4FEAB9384FEA930934
:101AF00058F829504FEA83784FEA18794FF00F08C9
:101B000008FA09F825EA0805DFF8A081424502D164
:101B10004FF0000824E0DFF89881424502D14FF0F1
:101B200001081DE0DFF88C81424502D14FF0020828
:101B300016E0DFF88481424502D14FF003080FE040
:101B4000DFF87881424502D14FF0040808E0DFF861
:101B50007081424502D14FF0050801E04FF00608C0
:101B60004FEA83794FEA197908FA09F848EA050536
:101B7000DFF850814FEA930948F82950D1F80480E2
:101B800008F48018B8F5801F0BD1DFF83C81D8F835
:101B9000008048EA0008DFF83091C9F800800AE0C8
:101BA00075E0DFF82481D8F8008028EA0008DFF823
:101BB0001891C9F80080D1F8048008F40018B8F52D
:101BC000001F0ED1DFF8008108F10408D8F800806A
:101BD00048EA0008DFF8F09009F10409C9F800802C
:101BE0000DE0DFF8E48008F10408D8F8008028EA66
:101BF0000008DFF8D49009F10409C9F80080D1F891
:101C0000048008F40038B8F5003F0ED1DFF8B88042
:101C1000A8F10408D8F8008048EA0008DFF8A89086
:101C2000A9F10409C9F800800DE0DFF89C80A8F153
:101C30000408D8F8008028EA0008DFF88C90A9F1A1
:101C40000409C9F80080D1F8048008F48038B8F598
:101C5000803F0ED1DFF87080A8F10808D8F8008026
:101C600048EA0008DFF86090A9F10809C9F8008087
:101C70000DE0DFF85480A8F10808D8F8008028EAC1
:101C80000008DFF84490A9F10809C9F800805B1C3E
:101C9000D1F8008028FA03F8B8F1000F7FF47CAE89
:101CA000BDE8F88700001110001002400008014054
:101CB000000C0140001001400014014000180140D8
:101CC000001C0140080001400804014010B5C26832
:101CD00021EA020302EA010443EA0443036110BD5E
:101CE0000AB1016101E00B0403617047014800681B
:101CF0007047000008000020034800680349097885
:101D000008440149086070470800002010000020C6
:101D100010B50848006840F010000649086003202C
:101D200000F0E2F80F2000F007F800F05FF8002064
:101D300010BD0000002002402DE9F04188B00446AB
:101D40000027B846002600BF2348C06940F01000B5
:101D50002149C8610846C06900F01000019000BF29
:101D600000BF02A903A800F053FF069F1FB900F0AF
:101D700077FF054602E000F073FF45001748B5FB0A
:101D8000F0F0A0F1010816481649086040F2E7316A
:101D90001448C160C0F80480002101618160816144
:101DA00001F014FB064696B90E4801F065FB0646A5
:101DB0006EB9362000F04AF8102C07D200222146D6
:101DC000362000F053F80848046000E00126304651
:101DD00008B0BDE8F08100000010024040420F0052
:101DE00000100040180700200C00002008B500BFBC
:101DF0001448806940F001001249886108468069F2
:101E000000F00100009000BF00BF00BF0846C0699D
:101E100040F08050C8610846C06900F080500090D2
:101E200000BF00BF00220F21901E00F01FF800BF6E
:101E30000549486820F0E06040F00070486000BF4D
:101E400008BD0000001002400000014001460846A5
:101E5000002809DB00F01F0301229A4043099B0080
:101E600003F1E023C3F8002100BF70472DE9F05FC4
:101E700080460D461646002703F01AFF07463946EE
:101E80002A46334601F00700C0F1070ABAF1040FF1
:101E900002D94FF0040A01E0C0F1070AD14600F16F
:101EA000040ABAF1070F02D24FF0000A01E0A0F1D4
:101EB000030AD4464FF0010A0AFA09FAAAF1010A04
:101EC0000AEA020A0AFA0CFA4FF0010B0BFA0CFBB1
:101ED000ABF1010B0BEA030B4AEA0B042146404627
:101EE00003F0EEFEBDE8F09F00BF00F00702064BD6
:101EF00019684FF6FF031940044B0B4343EA0221D4
:101F0000014B196000BF70470CED00E00000FA05BE
:101F1000704770472DE9F04105460C46174607F417
:101F20008040002850D02868B0F85010207801EB8D
:101F3000C000801C296801F5806131F81000C0F3F1
:101F40000906A069B04203D3A069801BA06101E02B
:101F50000020A061A069A8B900BF227852002968BA
:101F600031F812104BF68F7201EA020080F4005033
:101F700040F4004141F0800123785B002A6822F898
:101F8000131000BF07F04000A8B100BF00BF2278C7
:101F90005200296831F8121048F68F7201EA0200E7
:101FA00040F4004141F0C00123785B002A6822F828
:101FB000131000BF00BF002E55D02289616933463F
:101FC000286803F0EFFD4EE02868B0F85010207844
:101FD00001EBC000801D296801F5806131F8100017
:101FE000C0F30906A069B04203D3A069801BA061B9
:101FF00001E00020A061A069A8B900BF22785200CA
:10200000296831F812104BF68F7201EA020080F451
:10201000005040F4004141F0800123785B002A68C1
:1020200022F8131000BF07F04000A8B900BF00BF9E
:1020300022785200296831F8121048F68F7201EAAE
:10204000020040F4004141F0C00123785B002A689F
:1020500022F8131000BF00BF2EB1628961693346B8
:10206000286803F09FFD3046BDE8F0812DE9F04778
:1020700005460C46904608F0400000287ED02868AF
:10208000B0F85010207801EBC000801C296801F5E1
:10209000806131F81000C0F30907A069B84203D984
:1020A000A069C01BA06101E00020A061A069002818
:1020B0007ED100BF6078C0B900BF29682A68B2F835
:1020C000502011442278022303EBC20201F5806301
:1020D00003EB420000BF0288C2F3090202800288BB
:1020E00042F40042028000BF13E06078012810D162
:1020F00000BF28682A68B2F85020104422780223D2
:1021000003EBC20200F5806303EB420100220A8068
:1021100000BF00BF00BF29686078F8B900BF2B6816
:10212000D5F800C0BCF850C0634494F800C04FF02C
:10213000060909EBCC0C03F5806909EB4C0000BFE4
:10214000B0F800C0CCF3090CA0F800C0B0F800C093
:102150004CF4004CA0F800C000BF12E060780128E9
:102160000FD12868B0F8500001442078062303EB13
:10217000C00001F5806303EB400200E0B7E00020FF
:10218000108000BF21782846FFF7C2FE08F4804087
:10219000002816D000BF00BF22785200296831F80D
:1021A000121048F68F7201EA020040F4004100E08C
:1021B00008E041F4814123785B002A6822F813107B
:1021C00000BFD7E108F48040A8B100BF00BF22786B
:1021D0005200296831F8121048F68F7201EA0200A5
:1021E00040F4004141F4814123785B002A6822F8E1
:1021F000131000BF00BF94F824000128E1D16069EA
:1022000038446061E0693844E0612169206A8842AD
:1022100004D32669206A801B20620BE0206A20B963
:102220003E46002084F8240004E0002084F82400C6
:10223000266A206200BF6078E8BB00BF2A68296870
:10224000B1F850100A442178022303EBC10102F5D2
:10225000806303EB4101084600BF0388C3F3090311
:1022600003803E2E10D900BF710906F01F0303B989
:10227000491E03884FF4004C4CEA812C1FFA8CFC59
:1022800043EA0C03038014E026B9038843F40043B7
:1022900003800EE000BF710806F0010303B1491C82
:1022A00003884FF6FF7C0CEA812C43EA0C03038081
:1022B00000BF00BF13E0FFE7607801280FD100BF27
:1022C00028682A68B2F8502010442278022303EBD1
:1022D000C20200F5806303EB42010E8000BF00BF25
:1022E000B3B222896169286803F08BFC42E1286857
:1022F000B0F85010207801EBC000801D296801F56E
:10230000806131F81000C0F30907A069B84203D317
:10231000A069C01BA06101E00020A061A0690028A5
:102320007ED100BF6078C0B900BF29682A68B2F8C2
:10233000502011442278022303EBC20201F580638E
:1023400003EB420000BF0288C2F309020280028848
:1023500042F40042028000BF13E06078012810D1EF
:1023600000BF28682A68B2F850201044227802235F
:1023700003EBC20200F5806303EB420100220A80F6
:1023800000BF00BF00BF29686078F8B900BF2B68A4
:10239000D5F800C0BCF850C0634494F800C04FF0BA
:1023A000060909EBCC0C03F5806909EB4C0000BF72
:1023B000B0F800C0CCF3090CA0F800C0B0F800C021
:1023C0004CF4004CA0F800C000BF10E06078012879
:1023D0000DD12868B0F8500001442078062303EBA3
:1023E000C00001F5806303EB40020020108000BFB5
:1023F00021782846FFF78CFD08F48040002816D18C
:1024000000BF00BF22785200296831F8121048F648
:102410008F7201EA020040F4004141F4814100E082
:1024200006E023785B002A6822F8131000BFA1E0C1
:1024300008F48040A8B900BF00BF22785200296884
:1024400031F8121048F68F7201EA020040F40041A0
:1024500041F4814123785B002A6822F8131000BF01
:1024600000BF94F8240001287ED16069384460617F
:10247000E0693844E0612169206A884204D3266912
:10248000206A801B20620BE0206A20B93E460020B3
:1024900084F8240004E0266A0020206284F82400E6
:1024A00000BF2A68607870BB00BFD5F800C02968FB
:1024B000B1F850108C4421784FF0060909EBC101A6
:1024C0000CF5806909EB4101084600BFB0F80090A7
:1024D000C9F30909A0F800903E2E15D900BF710973
:1024E00006F01F09B9F1000F00D1491EB0F80090A5
:1024F0004FF4004A4AEA812A1FFA8AFA49EA0A098D
:10250000A0F800901BE01CE036B9B0F8009049F448
:102510000049A0F8009012E000BF710806F0010920
:10252000B9F1000F00D0491CB0F800904FF6FF7AC7
:102530000AEA812A49EA0A09A0F8009000BF00BF10
:102540000FE0607801280CD12868B0F850000244F0
:102550002078062101EBC00002F5806101EB400309
:102560001E8000BFB3B200E004E0628961692868A0
:1025700003F047FB00BF22785200296831F812109F
:1025800048F6BF7201EA020080F0100080F02000DF
:1025900040F4004141F0800223785B00296821F873
:1025A000132000BF0020BDE8F0877FB504462068F7
:1025B00003F0F4FA064606F40040B0F5004F03D1EC
:1025C000204601F0C7FE7FBD06F48060B0F5806F45
:1025D00010D12068B0F844004FF6FF310840216860
:1025E000A1F84400204600F095F90021204600F0B3
:1025F00094F9E8E706F48040B0F5804F09D12068EF
:10260000B0F844004BF6FF7108402168A1F844007F
:10261000D9E706F40050B0F5005F09D12068B0F8A2
:1026200044004DF6FF7108402168A1F84400CAE754
:1026300006F48050B0F5805F1ED12068B0F84000ED
:102640004FF6FB7108402168A1F840002068B0F8FF
:1026500040004FF6F77108402168A1F8400020467D
:1026600000F059F92068B0F844004EF6FF710840B8
:102670002168A1F84400A6E706F40060B0F5006FF9
:1026800056D1002507E06900206830F811002DF8C8
:102690001500681CC5B2082DF5D32068B0F84000BD
:1026A00040F001002168A1F840002068B0F8400027
:1026B0004FF6FE7108402168A1F8400000BF206875
:1026C000B0F8440000F480600028F8D02068B0F82A
:1026D00044004FF6FF3108402168A1F8440000256E
:1026E00007E03DF815006A00216821F81200681C17
:1026F000C5B2082DF5D32068B0F8400040F00800BE
:102700002168A1F840002068B0F844004FF2FF7142
:1027100008402168A1F844002068B0F8400040F06B
:1027200004002168A1F84000204600F012F94AE7B1
:1027300006F40070B0F5007F0CD12068B0F84400BA
:102740004FF6FF5108402168A1F84400204600F0F0
:10275000E3F838E706F48070B0F5807F09D120688F
:10276000B0F844004FF6FF6108402168A1F844002A
:1027700029E700BF27E730B585B0044614B901202A
:1027800005B030BD94F8A90228B9002084F8A80249
:10279000204600F095F8032084F8A902206802F092
:1027A000B3FC142204F110016846FDF73BFD94E8E8
:1027B0000F0002F097FC20B1022084F8A90201204A
:1027C000DEE70021206803F012FA00252AE001214B
:1027D00005EB850204F1280000EBC200417005EB17
:1027E000850104F1280000F83150002105EB850235
:1027F00000EBC200C17005EB850204F1280000EB7C
:10280000C200016105EB850204F1280000EBC20063
:10281000416105EB850204F1280000EBC2008161F3
:10282000681CC5B26068A842D1D800252AE0002102
:1028300005EB850204F5B47000EBC200417005EBB6
:10284000850104F5B47000F83150002105EB8502D4
:1028500000EBC200C17005EB850204F5B47000EB1B
:10286000C200016105EB850204F5B47000EBC20003
:10287000416105EB850204F5B47000EBC200816193
:10288000681CC5B26068A842D1D8142204F11001B6
:102890006846FDF7C7FC94E80F0002F02AFC20B15F
:1028A000022084F8A90201206AE7002084F82400AD
:1028B000012084F8A902206802F018FC00205FE7DC
:1028C00038B504461149206888421DD100BF104820
:1028D000C06940F400000E49C8610846C06900F4B0
:1028E0000000009000BF00BF002205211320FFF769
:1028F000BDFA1320FFF7AAFA002205211420FFF7E2
:10290000B5FA1420FFF7A2FA38BD0000005C0040C1
:102910000010024070477047704770B504460D467E
:1029200000BF94F8A802012801D1022070BD012047
:1029300084F8A80200BF84F824502946206803F0D8
:1029400059F900BF002084F8A80200BF00BFEDE7DE
:1029500070477047F8B5044600260025207800F03F
:10296000010000286BD000274348C06900F0805068
:1029700070B900BF4048C06940F080503E49C8610E
:102980000846C06900F08050009000BF00BF0127DA
:102990003A48006800F48070B0B93848006840F4E4
:1029A000807036490860FFF7A1F9064606E0FFF798
:1029B0009DF9801B642801D90320F8BD2F480068C9
:1029C00000F480700028F2D02B48006A00F44075B3
:1029D0002DB3A08800F44070A84220D02648006A99
:1029E00020F4407501202649086000200860224834
:1029F000056205F0010090B1FFF778F9064608E09E
:102A0000FFF774F9801B41F28831884201D9032015
:102A1000D3E71948006A00F002000028F0D01648F9
:102A2000006A20F440706168084313490862012F6E
:102A300004D10846C06920F08050C86100BF2078EA
:102A400000F00200022807D10B48406820F4404003
:102A5000A168084308494860207800F01000102859
:102A600007D10548406820F48000616908430249A5
:102A700048600020A1E70000001002400070004004
:102A80004004424270B504460D460CB9012070BDA9
:102A90005A48006800F00700A8420ED25748006864
:102AA00020F007002843554908600846006800F0F8
:102AB0000700A84201D00120E9E7207800F00200D9
:102AC00002281DD1207800F00400042805D14C48CC
:102AD000406840F4E0604A494860207800F008000F
:102AE000082805D14648406840F460504449486091
:102AF0004348406820F0F000A1680843404948601E
:102B0000207800F0010078B36068012806D13C48C5
:102B1000006800F4003090B90120B8E7606802282E
:102B200006D13748006800F0007040B90120AEE7D8
:102B30003348006800F0020008B90120A7E73048D8
:102B4000406820F00300616808432D494860FFF7A2
:102B5000CDF8064609E0FFF7C9F8801B41F288313D
:102B6000884202D9032092E707E02548406800F038
:102B70000C006168B0EB810FEDD12048006800F0D7
:102B80000700A8420ED91D48006820F0070028431E
:102B90001A4908600846006800F00700A84201D002
:102BA000012074E7207800F00400042807D11448BD
:102BB000406820F4E060E1680843114948602078EB
:102BC00000F00800082808D10D48406820F4605043
:102BD000216940EAC1000A49486000F061F80849EB
:102BE0004968C1F30311074A515CC84006490860AF
:102BF00006480068FFF7A0F8002048E700200240E0
:102C00000010024092A10008140000200C000020D7
:102C10000F2202600D4A526802F0030242600B4A22
:102C2000526802F0F0028260084A526802F4E062E0
:102C3000C260064A526802F46052D2080261044A35
:102C4000126802F007020A6070470000001002409C
:102C50000020024001480068704700001400002076
:102C600000B5FFF7F7FF04494968C1F30221034AA1
:102C7000515CC84000BD000000100240A2A1000845
:102C800000B5FFF7E7FF04494968C1F3C221034AD1
:102C9000515CC84000BD000000100240A2A1000825
:102CA00070B500210022002400230020134D696824
:102CB00001F00C05F5B1042D02D0082D19D101E069
:102CC0000F4819E00F4DC1F38346AB5D01F4803529
:102CD00055B10A4D6D68C5F340450B4E725D084D08
:102CE0005D43B5FBF2F402E0084D03FB05F420461A
:102CF00002E000BF024800BF00BF70BD00100240EC
:102D000000127A0080A1000890A1000800093D008F
:102D1000F8B504460CB90120F8BD207800F0010098
:102D2000002878D0F848406800F00C0004280CD047
:102D3000F548406800F00C00082811D1F2484068BE
:102D400000F48030B0F5803F0AD1EF48006800F40D
:102D5000003000285FD0606800285CD10120DBE7EC
:102D600000BF6068B0F5803F06D1E748006840F4D6
:102D70008030E549086028E0606858B9E24800689A
:102D800020F48030E04908600846006820F4802084
:102D900008601AE06068B0F5A02F0BD1DA4800682F
:102DA00040F48020D84908600846006840F480302C
:102DB00008600AE0D448006820F48030D2490860F6
:102DC0000846006820F48020086000BF606888B171
:102DD000FEF78CFF054606E0FEF788FF401B6428DF
:102DE00001D9032098E7C848006800F400300028A3
:102DF000F2D010E0FEF77AFF054606E0FEF776FF18
:102E0000401B642801D9032086E7BF48006800F40E
:102E100000300028F2D1207800F00200022857D1BB
:102E2000B948406800F00C0050B1B748406800F065
:102E30000C00082818D1B448406800F4803098B9D4
:102E4000B148006800F0020020B12069012801D0DB
:102E5000012061E7AC48006820F0F800616940EAB1
:102E6000C100A949086033E02069E8B10120A74901
:102E70000860FEF73BFF054606E0FEF737FF401B04
:102E8000022801D9032047E79F48006800F00200AC
:102E90000028F2D09C48006820F0F800616940EA00
:102EA000C1009949086013E0002098490860FEF7C6
:102EB0001DFF054606E0FEF719FF401B022801D959
:102EC000032029E79048006800F002000028F2D1B2
:102ED000207800F0080008282DD1A069B8B10120A1
:102EE0008B490860FEF702FF054606E0FEF7FEFE8E
:102EF000401B022801D903200EE78348406A00F0F6
:102F000002000028F2D0012001F09EFC13E0002016
:102F10007F490860FEF7EAFE054606E0FEF7E6FE9A
:102F2000401B022801D90320F6E67748406A00F0EA
:102F300002000028F2D1207800F00400042873D1A8
:102F400000277148C06900F0805070B900BF6E481A
:102F5000C06940F080506C49C8610846C06900F003
:102F60008050009000BF00BF01276A48006800F44D
:102F70008070B0B96748006840F4807065490860A7
:102F8000FEF7B4FE054606E0FEF7B0FE401B6428DF
:102F900001D90320C0E65F48006800F48070002873
:102FA000F2D000BFE068012806D15748006A40F01F
:102FB00001005549086227E0E06858B95248006AA4
:102FC00020F00100504908620846006A20F0040021
:102FD000086219E0E06805280BD14B48006A40F010
:102FE0000400494908620846006A40F0010008628E
:102FF0000AE04548006A20F001004349086208469B
:10300000006A20F00400086200BFE068A0B1FEF78B
:103010006DFE054609E0FEF769FE401B41F288316E
:10302000884202D9032077E622E03748006A00F0A0
:1030300002000028EFD012E0FEF758FE054608E037
:10304000FEF754FE401B41F28831884201D903202B
:1030500062E62D48006A00F002000028F0D1012F3E
:1030600005D12948C06920F080502749C86100BFB8
:10307000E069C8B32448406800F00C00082860D01C
:10308000E069022848D1002020490866FEF72EFE9C
:10309000054606E0FEF72AFE401B022801D9032060
:1030A0003AE61948006800F000700028F2D1206A62
:1030B000B0F5803F07D11448406820F40030A16883
:1030C000084311494860D4E9080108430E4949689A
:1030D00021F4741108430C49486001200B4908662B
:1030E000FEF704FE054607E03DE0FEF7FFFD401B4E
:1030F000022801D903200FE60348006800F00070A1
:103100000028F2D02FE000000010024000004242F0
:103110008004424200700040002014490866FEF717
:10312000E5FD054606E0FEF7E1FD401B022801D95A
:103130000320F1E50E48006800F000700028F2D18D
:1031400011E0E069012800D1E6E50948466806F487
:103150008031206A814204D106F47011606A814294
:1031600001D00120D8E50020D6E500000000424251
:103170000010024010B504460CB9012010BD606A71
:1031800038B96068B0F5827F00D105E00021E161C7
:1031900002E00021216161610021A16294F85100E7
:1031A00028B9002084F85000204600F043F802209F
:1031B00084F851002068006820F040002168086011
:1031C000A08800F48270218901F404410843A18998
:1031D00001F400610843217C01F002010843217DD4
:1031E00001F001010843218B01F400710843217FA4
:1031F00001F0380108432021095D01F080010843F6
:10320000218D01F400510843216808600421A06960
:1032100001EA1040216848602068C06920F400601D
:103220002168C86100206065012084F851000020F9
:10323000A4E7000010B586B0044600200290039079
:10324000049005903449206888422ED100BF33484D
:10325000806940F48050314988610846806900F4F3
:103260008050019000BF00BF00BF0846806940F059
:10327000040088610846806900F00400019000BFE6
:1032800000BFA0200290022003900320059002A915
:103290002348FEF77BFB402002900020039004901F
:1032A00002A91F48FEF772FB33E01E4920688842DE
:1032B0002FD100BF1948C06940F480401749C86148
:1032C0000846C06900F48040019000BF00BF00BF05
:1032D0000846806940F0080088610846806900F06F
:1032E0000800019000BF00BF4FF420400290022070
:1032F00003900320059002A90B48FEF747FB4FF40B
:103300008040029000200390049002A90648FEF736
:103310003DFB06B010BD000000300140001002402F
:103320000008014000380040000C01407047704721
:1033300030B502460B4600BF92F83C00012801D18F
:10334000022030BD012082F83C0000BF022082F83C
:103350003D00106844681068816824F070041868A3
:10336000044310684460144D1068A84213D0134DF4
:103370001068A8420FD01068B0F1804F0BD0104DEC
:103380001068A84207D00F4D1068A84203D00E4D18
:103390001068A84205D121F08001586801431068E7
:1033A0008160012082F83D0000BF002082F83C00CF
:1033B00000BF00BFC5E70000002C01400034014001
:1033C0000004004000080040000C004010B5044616
:1033D0000CB9012010BD94F83D0028B9002084F8F4
:1033E0003C00204600F026F8022084F83D00211D14
:1033F000206801F0C7FA012084F8460000BF84F875
:103400003E0001213F20015540200155412001553A
:1034100000BF00BF012084F8420043200155442032
:1034200001554520015500BF012084F83D000020D2
:10343000D0E7000038B504460D492068884215D110
:1034400000BF0C48C06940F004000A49C861084642
:10345000C06900F00400009000BF00BF00220521F9
:103460001E20FEF703FD1E20FEF7F0FC38BD000015
:103470000008004000100240014691F83D0001287C
:1034800001D001207047022081F83D000868C06823
:1034900040F001000B68D860164B0868984213D0C2
:1034A000154B086898420FD00868B0F1804F0BD0D8
:1034B000124B0868984207D0114B0868984203D015
:1034C000104B086898420CD10868806800F0070229
:1034D000062A0CD00868006840F001000B681860EC
:1034E00005E00868006840F001000B6818600020E3
:1034F000C8E70000002C01400034014000040040F7
:1035000000080040000C00402DE9F04104460D4643
:10351000002700BF94F83C00012802D10220BDE83A
:10352000F081012084F83C0000BF022084F83D00B7
:103530002068866826F0770626F47F462068866035
:103540002868502833D00CDC202850D004DC002818
:103550004BD0102851D149E0302849D040284CD1D7
:1035600039E060282DD0702807D0B0F5805F03D0F7
:10357000B0F5005F41D10DE041E0D5E902136A6882
:10358000206801F04DFA2068866846F077062068CA
:10359000866034E0D5E902136A68206801F040FAD9
:1035A0002068806840F480402168886027E0EA68ED
:1035B0006968206801F048FA5021206801F03BFA60
:1035C0001DE0EA686968206801F051FA602120680E
:1035D00001F031FA13E0EA686968206801F034FA12
:1035E0004021206801F027FA09E000BF00BF00BFBA
:1035F0002968206801F01FFA01E0012700BF00BF21
:10360000012084F83D0000BF002084F83C0000BF8A
:10361000384684E7704710B5044620680069C0F357
:103620004000D8B12068C068C0F34000B0B16FF06E
:10363000020021680861012020772068806900F07D
:10364000030018B12046FFF7E5FF05E0204600F033
:10365000ADF8204600F0ABF8002020772068006924
:10366000C0F38000D8B12068C068C0F38000B0B15A
:103670006FF00400216808610220207720688069CB
:1036800000F4407018B12046FFF7C4FF05E0204663
:1036900000F08CF8204600F08AF80020207720689F
:1036A0000069C0F3C000D8B12068C068C0F3C00092
:1036B000B0B16FF00800216808610420207720680D
:1036C000C06900F0030018B12046FFF7A3FF05E032
:1036D000204600F06BF8204600F069F800202077C3
:1036E00020680069C0F30010D8B12068C068C0F33A
:1036F0000010B0B16FF01000216808610820207739
:103700002068C06900F4407018B12046FFF782FFBE
:1037100005E0204600F04AF8204600F048F8002076
:1037200020772068006900F0010058B12068C06867
:1037300000F0010030B16FF00100216808612046FF
:1037400000F036F820680069C0F3C01058B1206856
:10375000C068C0F3C01030B16FF08000216808610C
:103760002046FFF7E3FD20680069C0F3801058B1E0
:103770002068C068C0F3801030B16FF0400021684D
:103780000861204600F020F820680069C0F340106E
:1037900058B12068C068C0F3401030B16FF020000D
:1037A000216808612046FFF7C2FD10BD70477047D1
:1037B00010B5044603492068884201D1FEF79CFAFF
:1037C00010BD0000001000407047704770470000B7
:1037D0002DE9F84F0446206805682068C66820680F
:1037E00047694FF00009CA4605F00F09B9F1000F0B
:1037F0000AD105F0200038B106F0200020B12046A3
:1038000001F0C3FABDE8F88FB9F1000F7BD007F0E3
:10381000010018B906F49070002874D005F001007A
:1038200030B106F4807018B1606C40F00100606443
:1038300005F0040030B107F0010018B1606C40F0F1
:103840000200606405F0020030B107F0010018B119
:10385000606C40F00400606405F0080048B106F0B8
:10386000200010B907F0010018B1606C40F00800AA
:103870006064606C002845D005F0200028B106F097
:10388000200010B1204601F080FA20684069C0F3A2
:10389000801A606C00F0080010B9BAF1000F2CD04B
:1038A000204601F0E6F92068406900F0400000B3CE
:1038B00000BF00BF2168143151E8001F21F0400013
:1038C0002168143141E80002002AF3D100BFE06B07
:1038D00050B17748E16B4863E06BFDF7E9FC88B1D4
:1038E000E06B416B88470DE02046FFF76FFF09E072
:1038F00009E02046FFF76AFF04E02046FFF766FF75
:10390000002060647EE7206B012877D105F010006D
:10391000002873D006F010000028FAD000BF002065
:10392000009020680068009020684068009000BF08
:1039300000BF2068406900F0400000285FD0E06BC5
:10394000006840681FFA80F8B8F1000F55D0A08DCC
:10395000404552DDA4F82E80E06B8069202843D0DA
:1039600000BF00BF21680C3151E8001F21F48070B6
:1039700021680C3141E80002002AF3D100BF00BFEA
:1039800000BF2168143151E8001F21F001002168B7
:10399000143141E80002002AF3D100BF00BF00BF8C
:1039A0002168143151E8001F21F0400021681431D2
:1039B00041E80002002AF3D100BF202084F8420031
:1039C0000020206300BF00BF21680C3151E8001FB8
:1039D00021F0100021680C3141E80002002AF3D1E7
:1039E00000BFE06BFDF739FC02206063A08DE28D23
:1039F000801A81B22046FFF7E8FE03E742E0A08D7F
:103A0000E18D401A1FFA80F8E08DD0B3B8F1000FB5
:103A100037D000BF00BF21680C3151E8001F21F4EE
:103A2000907021680C3141E80002002AF3D100BFF8
:103A300000BF00BF2168143151E8001F21F00100D0
:103A40002168143141E80002002AF3D100BF202090
:103A500084F842000020206300BF00BF21680C31C1
:103A600051E8001F21F0100021680C3141E80002EC
:103A7000002AF3D100BF0220606341462046FFF7D1
:103A8000A4FEBFE605F0800030B106F0800018B15A
:103A9000204601F0DBFAB5E605F0400030B106F053
:103AA000400018B1204601F01AF9ABE600BFA9E6C4
:103AB000D14A000810B504460CB9012010BDA06918
:103AC00000B100E000BF94F8410028B9002084F85C
:103AD0004000204600F02AF8242084F841002068A5
:103AE000C06820F400502168C860204601F0CCF97D
:103AF0002068006920F490402168086120684069CE
:103B000020F02A00216848612068C06840F4005015
:103B10002168C86000206064202084F8410084F897
:103B200042000020606300BFC8E7000010B586B007
:103B3000044600200290039004900590A24920685A
:103B400088426CD100BFA148806940F480409F4901
:103B500088610846806900F48040019000BF00BF82
:103B600000BF0846806940F004008861084680690B
:103B700000F00400019000BF00BF48150290022031
:103B800003900320059002A99148FDF7FFFE4FF432
:103B90008060029000200390049002A98C48FDF7F9
:103BA000F5FE8C488C4908600020486000218A4856
:103BB00081608021C160002101614161202181611A
:103BC0000021C161FDF714FE08B1FCF740FE00BF03
:103BD0008148E063446200BF7E4814387F49086032
:103BE0001020486000217D4881608021C160002153
:103BF000016141618161C161FDF7FAFD08B1FCF726
:103C000026FE00BF7548A063446200BF0022052164
:103C10002520FEF72BF92520FEF718F9D2E0704990
:103C20002068884252D100BF6848C06940F4003023
:103C30006649C8610846C06900F40030019000BFC1
:103C400000BF00BF0846806940F004008861084654
:103C5000806900F00400019000BF00BF04200290C2
:103C6000022003900320059002A95948FDF78EFE1B
:103C70000820029000200390049002A95448FDF708
:103C800085FE5448143057490860002048600021E0
:103C9000544881608021C16000210161416120217F
:103CA00081610021C161FDF7A3FD08B1FCF7CFFDE3
:103CB00000BF4C48E063446200BF0022052126207B
:103CC000FEF7D4F82620FEF7C1F87BE046492068CD
:103CD000884277D100BF3D48C06940F480203B490D
:103CE000C8610846C06900F48020019000BF00BF91
:103CF00000BF0846806940F010008861084680696E
:103D000000F01000019000BF00BF081502900220D3
:103D100003900320059002A93448FDF737FE4FF4C5
:103D20000060029000200390049002A92F48FDF744
:103D30002DFE00BF2E49486820F0300040F0E060C2
:103D400040F01000486000BF224828382949086028
:103D5000002048600021274881608021C160002147
:103D6000016141618161C161FDF742FD08B1FCF76C
:103D70006EFD00BF1F48E063446200BF15483C3839
:103D80001D4908601020486000211B488160802187
:103D9000C160002101614161202181610021C16177
:103DA000FDF726FD08B1FCF752FD00BF1248A063E5
:103DB000446200BF002205212720FEF757F8272084
:103DC000FEF744F806B010BD003801400010024074
:103DD0000008014058000240D402002018030020CF
:103DE000004400405C0300200048004000100140F7
:103DF00000000140A0030020E403002070B5044649
:103E00000D46164694F8420020280BD105B10EB994
:103E1000012070BD0020206332462946204601F073
:103E2000B1F8F6E70220F4E710B5044607488442EB
:103E300004D10221064804F077FF06E005488442D9
:103E400003D10221044804F06FFF10BDFC010020E3
:103E5000983E00208C020020DC3E002010B5044675
:103E60000748844204D10121064804F05DFF06E0C2
:103E70000548844203D10121044804F055FF10BDD8
:103E8000FC010020983E00208C020020DC3E002037
:103E9000F7B50446154694F84100202836D101981C
:103EA00000B10DB90120FEBD01982062A584E58412
:103EB00000206064212084F841001548A16B8862CD
:103EC0001448A16BC8621448A16B08630020A16B61
:103ED000486301AE23681A1D31682B46A06BFDF7BD
:103EE00006FD6FF040002168086000BF00BF216838
:103EF000143151E8001F41F080002168143141E87D
:103F00000002002AF3D100BF0020CCE70220CAE75C
:103F10000D4C0008654C0008E54A000810B5044641
:103F20000648844203D1064804F07FFF05E00548B7
:103F3000844202D1044804F078FF10BDFC01002047
:103F4000983E00208C020020DC3E0020704700BF1D
:103F5000FEE7000010B50F480F49086009204860CF
:103F600000210D488160C1604FF48021016189000A
:103F7000416100210176012141768176C1760021DF
:103F8000017701214177FCF7BFFF08B1FCF75FFC27
:103F900010BD000000640040DC00002008B500BF38
:103FA0001A48406940F001001849486108464069D4
:103FB00000F00100009000BF00BF002205210C208E
:103FC000FDF754FF0C20FDF741FF002205210D20D5
:103FD000FDF74CFF0D20FDF739FF002205210E20D3
:103FE000FDF744FF0E20FDF731FF002205210F20D1
:103FF000FDF73CFF0F20FDF729FF002205211020CF
:10400000FDF734FF1020FDF721FF08BD001002402E
:104010001CB5094A0021094803F010FE0849086050
:104020000848012100238022CDE9001006A109489B
:1040300005F0B0FD1CBD00005CA100082949000886
:10404000000000200400002073797374656D6C65B6
:1040500064000000818A000800B585B0002001904E
:1040600002900390049000BF3E48806940F0100029
:104070003C4988610846806900F01000009000BF4C
:1040800000BF00BF0846806940F0200088610846F4
:10409000806900F02000009000BF00BF00BF08460C
:1040A000806940F0040088610846806900F00400DF
:1040B000009000BF00BF00BF0846806940F00800C4
:1040C00088610846806900F00800009000BF00BFCA
:1040D00000224FF400512448FDF702FE0022102177
:1040E0002248FDF7FDFD002241F674412048FDF70E
:1040F000F7FD4FF400500190012002900390022040
:10410000049001A91848FDF741FC102001900120FE
:104110000290002003900220049001A91348FDF7AB
:1041200035FC3020019000200290039001A90E4838
:10413000FDF72CFC0320019000200290039001A9C0
:104140000B48FDF723FC41F67440019001200290DA
:10415000002003900220049001A90548FDF716FCF9
:1041600005B000BD001002400010014000080140F1
:10417000000C014010B50E480E4908604FF48270E3
:10418000486000210B488160C160016141614FF4CA
:10419000007181610821C161002101624162816277
:1041A0000A21C162FEF7E6FF08B1FCF750FB10BD23
:1041B000003001400401002010B50E480E4908608F
:1041C0004FF48270486000210B488160C16001613A
:1041D00041614FF4007181610021C161016241625E
:1041E00081620A21C162FEF7C5FF08B1FCF72FFB0F
:1041F00010BD0000003800405C01002000B587B011
:1042000000200390049005900690019002901548BC
:104210001549086041F61F4048600021124881603E
:104220004FF4FA71C160002101618161FFF7CEF89E
:1042300008B1FCF70CFB4FF48050039003A90A4827
:10424000FFF762F908B1FCF702FB00200190029031
:1042500001A90548FFF76CF808B1FCF7F8FA07B0B8
:1042600000BD000000080040B401002010B50B485C
:104270000B4908604FF4E130486000210848816034
:10428000C16001610C21416100218161C161FFF7C1
:1042900011FC08B1FCF7DBFA10BD0000003801404A
:1042A000FC01002010B50C480C4908600C4848601F
:1042B00000210A4881604FF40051C160C9100161BA
:1042C0000421416100218161C161FFF7F3FB08B165
:1042D000FCF7BDFA10BD000000440040440200207D
:1042E000A086010010B50B480B4908604FF4E1307F
:1042F0004860002108488160C16001610C21416172
:1043000000218161C161FFF7D5FB08B1FCF79FFA7D
:1043100010BD0000004800408C02002010B5094884
:10432000094908600820486002210748816000218F
:104330008161C1610162FEF71EFA08B1FCF787FADC
:1043400010BD0000005C00402804002000BFFEE714
:1043500000BFFEE72DE9F05F05466AE22868B0F885
:1043600044A00AF00F07002F7DD10AF01000B0BB67
:1043700000BF2968098848F60F7201EA020040F47C
:1043800000412A68118000BF05F128042868B0F8B0
:104390005010207801EBC000801C296801F5806175
:1043A00031F81000C0F30900E061E1696069084478
:1043B000606100212846FDF7ABFD95F82400002838
:1043C000CBD0A0690028C8D195F8240040F0800027
:1043D0002968A1F84C00002085F8240029E2FFE7B5
:1043E00005F5B4742868068806F4006030B32868C0
:1043F000B0F85010207801EBC000801D296801F54D
:10440000806131F81000C0F30900E061A18B8BB22C
:10441000E28805F52C71286801F0C4FB00BF29680B
:10442000098840F68F7201EA020040F080012A6894
:10443000118000BF2846FEF78BFAFAE106F400402F
:1044400000288AD000BF2968098840F68F7201EAE7
:10445000020040F080012A68118000BF2868B0F88F
:104460005010207800E07AE001EBC000801D296840
:1044700001F5806131F81000C0F30900E061E069E6
:1044800090B1606980B1B4F81CC01FFA8CF3E28867
:104490006169286801F086FBE16960690844606130
:1044A00000212846FDF735FD2868068806F40060DF
:1044B000002893D106F44050B0F5405F8ED000BF85
:1044C0002A682968B1F850100A4402F20C410846E3
:1044D00000BF0388C3F30903038023693E2B12D96D
:1044E00000BF23695909237C03F01F0303B9491E48
:1044F00003884FF4004C4CEA812C1FFA8CFC43EAF1
:104500000C03038017E0236923B9038843F40043B5
:10451000038010E000BF23695908237C03F00103E6
:1045200003B1491C03884FF6FF7C0CEA812C43EA57
:104530000C03038000BF00BF00BF00BF29680988CB
:104540004BF68F7201EA020080F4805080F4005034
:1045500040F4004141F080012A68118069E179004E
:10456000286830F8116006F4004000286FD000BFC2
:104570007A00296831F8121040F68F7201EA0200C1
:1045800040F080017B002A6822F8131000BF07EB7F
:10459000870105F5B47000EBC104207BB8B9286829
:1045A000B0F85010207801EBC000801D296801F59B
:1045B000806131F81000C0F30908B8F1000F5ED037
:1045C000E28861694346286801F0ECFA57E0E07838
:1045D000022806D1324621462846FDF79BFC80463C
:1045E0004DE000BF00BF22785200296831F8121058
:1045F00048F68F7201EA020040F4004141F0C00128
:1046000023785B002A6822F8131000BF00BF2178CE
:104610004900286830F8110000F48040C0B12868D3
:10462000B0F85010207801EBC000801C296801F51B
:10463000806131F81000C0F30908B8F1000F1ED0F6
:10464000228961694346286801F0ACFA17E02AE044
:104650002868B0F85010207801EBC000801D296850
:1046600001F5806131F81000C0F30908B8F1000FBE
:1046700005D0628961694346286801F093FAE069D0
:104680004044E061606940446061A06910B1206904
:10469000404504D921782846FDF73BFC03E021463C
:1046A000286800F03BFD06F08000002876D007EB7C
:1046B000870105F1280000EBC10400BF7A002968DA
:1046C00031F8121048F60F7201EA020040F400417E
:1046D0007B002A6822F8131000BFE078012876D109
:1046E0000020A061207B00286BD006F0400080B342
:1046F00000BF6078C0B900BF29682A68B2F85020AE
:1047000011442278022303EBC20201F5806303EB1C
:10471000420000BF0288C2F309020280028842F40C
:104720000042028000BF13E06078012810D100BF72
:1047300028682A68B2F8502010442278022303EB3C
:10474000C20200F5806303EB420100220A8000BF31
:1047500037E0FFE700BF2968607800BB00BF2B6827
:10476000D5F800C0BCF850C0634494F800C04FF0C6
:10477000060B0BEBCC0C03F5806B0BEB4C0000BF76
:10478000B0F800C0CCF3090CA0F800C0B0F800C02D
:104790004CF4004CA0F800C000BF11E049E0607884
:1047A00001280DD12868B0F8500001442078062374
:1047B00003EBC00001F5806303EB40020020108092
:1047C00000BF21782846FDF7A3FB32E0FFE706F49F
:1047D000807048BB2868B0F85010207801EBC0000A
:1047E000801C296801F5806131F81000C0F30909C7
:1047F000A069484504D9A069A0EB0900A06101E0C7
:104800000020A061A06920B921782846FDF780FB2F
:104810000FE0606948446061E0694844E061214616
:10482000286800F07BFC04E0324621462846FDF76C
:104830001DFC2868B0F8440000F4004000287FF414
:104840008DADBDE8F09F000008B508490968C908AA
:104850004FF47A72B1FBF2F14143009100BF00BF07
:1048600000994A1E00920029F9D108BD14000020C9
:1048700010B500BF502080F31188BFF34F8FBFF3F6
:104880006F8F00BF05F02AFA18B14FF0805004492D
:10489000086000BF002080F3118800BF10BD000039
:1048A00004ED00E000B595B028210BA8FBF7D3FC80
:1048B000142106A8FBF7CFFC18216846FBF7CBFCB8
:1048C00001200B9000040C9000200D9001200F900F
:1048D00002201290C10313914FF4E01114910BA820
:1048E000FEF716FA08B1FBF7B2FF0F200690022080
:1048F0000790002008904FF48060099000200A90F3
:10490000022106A8FEF7BEF808B1FBF7A0FF1020B1
:104910000090002005906846FEF71CF808B1FBF7F0
:1049200096FF15B000BD704702F051FD04F0A4F8E9
:1049300004F024F900BF4FF4FA7004F017FCFAE712
:1049400010B50A480068006900F0010068B1074826
:104950000068C06800F0010038B16FF00100034941
:1049600009680861014800F003F810BDB401002097
:104970007047000010B50248FEF74DFE10BD000064
:104980001807002010B50268204B98420ED0204B2B
:1049900098420BD0B0F1804F08D01E4B984205D002
:1049A0001D4B984202D01D4B984203D122F0700259
:1049B0004B681A43154B98420ED0154B98420BD0BA
:1049C000B0F1804F08D0134B984205D0124B98425B
:1049D00002D0124B984203D122F44072CB681A43A2
:1049E00022F080034C6943EA040202608B68C362D0
:1049F0000B688362054B984202D0054B984201D167
:104A00000B6903630123436110BD0000002C0140CA
:104A1000003401400004004000080040000C004049
:104A200030B50C46816821F47F4142EA03252543D5
:104A30002943816030BD0A46816821F0700142F04F
:104A4000070319438160704730B50B461446026A6C
:104A5000056A25F001050562816921F0F00141EA4E
:104A6000041122F00A021A438161026230BD30B59E
:104A70000B461446026A056A25F010050562816935
:104A800021F4704141EA043122F0A00242EA03120B
:104A90008161026230BD0000012013E00B4931F852
:104AA000301069B1094901EBC001496841B10749BA
:104AB00001EBC0014968491E044A02EBC002516083
:104AC000411CC8B21528E9DB70470000D450002013
:104AD00070B505466C6A0020E085E0842046FEF74C
:104AE00075FE70BD70B506460025746A2068406981
:104AF000C0F3C01594F84100212805D125B100204C
:104B0000E084204600F0FBF820684069C0F380157F
:104B100094F84200222805D125B10020E0852046E6
:104B200000F0A7F8606C40F0100060642046FEF7CB
:104B30004DFE70BD70B505466C6A2868006800F0CF
:104B40002000002842D1E08500BF00BF21680C3161
:104B500051E8001F21F4807021680C3141E8000207
:104B6000002AF3D100BF00BF00BF2168143151E813
:104B7000001F21F001002168143141E80002002AE1
:104B8000F3D100BF00BF00BF2168143151E8001FFE
:104B900021F040002168143141E80002002AF3D1DD
:104BA00000BF202084F84200206B01280ED100BFF6
:104BB00000BF21680C3151E8001F21F0100021686E
:104BC0000C3141E80002002AF3D100BF00206063ED
:104BD000206B012804D1A18D2046FEF7F6FD02E0EE
:104BE0002046FFF721F970BD70B505466C6A0120BB
:104BF0006063206B012805D1A08D41082046FEF797
:104C0000E4FD02E02046FFF729F970BD70B50546C6
:104C10006C6A2868006800F02000F8B90020E08481
:104C200000BF00BF2168143151E8001F21F080004F
:104C30002168143141E80002002AF3D100BF00BF0F
:104C400000BF21680C3151E8001F41F0400021688D
:104C50000C3141E80002002AF3D102E02046FFF7C0
:104C60005DF970BD70B50446656A2846FFF76EF9B8
:104C700070BD00BF00BF02680C3252E8002F22F462
:104C8000907102680C3242E80013002BF3D100BF90
:104C900000BF00BF0268143252E8002F22F0010169
:104CA0000268143242E80013002BF3D100BF016BFD
:104CB00001290ED100BF00BF02680C3252E8002F5C
:104CC00022F0100102680C3242E80013002BF3D1ED
:104CD00000BF202180F8421000210163704710B509
:104CE00004462068C06820F040002168C860202089
:104CF00084F841002046FFF711F9002010BD00BFE5
:104D000000BF02680C3252E8002F22F0C001026896
:104D10000C3242E80013002BF3D100BF202180F8B1
:104D2000411070472DE9F04104460D461646002714
:104D300094F84270202F26D105B116B90120BDE8A4
:104D4000F08100BF94F84000012801D10220F6E76D
:104D5000012084F8400000BFA562A68500206064A1
:104D60002268111D33462A46E06BFCF787FD206858
:104D7000406940F040002168486100BF002084F88D
:104D8000400000BFDBE70220D9E7F8B5044694F8FD
:104D90004200222875D1A068B0F5805F0CD120694F
:104DA00050B90025A66A20684068C0F3080030802A
:104DB000A06A801CA06215E0A56A0026A068B0F574
:104DC000805F03D0A06828B9206918B920684068BE
:104DD000287004E02068406800F07F002870A06A16
:104DE000401CA062E08D401E80B2E085002846D1C4
:104DF0002068C06820F020002168C8602068C06872
:104E000020F480702168C8602068406920F00100AB
:104E100021684861202084F8420000206063206BF4
:104E2000012826D10020206300BF00BF21680C317B
:104E300051E8001F21F0100021680C3141E8000208
:104E4000002AF3D100BF2068006800F0100010288D
:104E50000AD100BF00200090206800680090206800
:104E60004068009000BF00BFA18D2046FEF7ADFC5A
:104E700002E02046FEF7D8FF0020F8BD01E0002048
:104E8000FBE70220F9E7000070B5044621680969D4
:104E900021F44051E2681143226811612269A1683E
:104EA0001143626941EA02052168C96841F20C6256
:104EB000914329432268D1602168496921F44071F6
:104EC000A2691143226851612D4A2168914202D1A1
:104ED000FDF7D6FE01E0FDF7C3FE00EBC00101EBDC
:104EE000001162689200B1FBF2F100EBC00202EB2C
:104EF000001263689B00B2FBF3F26423B2FBF3F28F
:104F000002EBC20303EB0212A1EB8201322202EB9D
:104F100001116422B1FBF2F101F0F00100EBC002DB
:104F200002EB001263689B00B2FBF3F26423B2FB56
:104F3000F3F201EB021200EBC00101EB0011636818
:104F40009B00B1FBF3F100EBC00303EB00136668B9
:104F5000B600B3FBF6F36426B3FBF6F303EBC3062C
:104F600006EB0313A1EB8301322303EB011164234E
:104F7000B1FBF3F101F00F0111442268916070BDA3
:104F80000038014077B581B0044615460298A0620A
:104F9000A58500206064222084F842002848E16B47
:104FA00088622848E16BC8622748E16B08630020EB
:104FB000E16B486302AE32682368191D2B46E06B33
:104FC000FCF795FC00BF002000902068006800906E
:104FD00020684068009000BF00BF206970B100BF2A
:104FE00000BF21680C3151E8001F41F48070216836
:104FF0000C3141E80002002AF3D100BF00BF00BF1E
:105000002168143151E8001F41F00100216814317A
:1050100041E80002002AF3D100BF00BF00BF2168B1
:10502000143151E8001F41F040002168143141E87B
:105030000002002AF3D100BF002004B070BD0000C0
:10504000354B0008E94B0008E54A0008014691F895
:105050004100212828D18868B0F5805F0BD108690C
:1050600048B90A6A1088C0F308000B685860086ADB
:10507000801C086205E00B6A581C086218780B68EF
:105080005860C88C401E80B2C88458B90868C0688F
:1050900020F080000B68D8600868C06840F04000CD
:1050A0000B68D860002070470220FCE710B503F0C1
:1050B0009DFD0248FEF78CFB10BD0000FC010020A6
:1050C00010B5034803F014FD0148FEF781FB10BD45
:1050D0004402002010B50248FEF77AFB10BD000024
:1050E0008C02002010B50446002010BD01460020AF
:1050F000704710B50446012024F8400F002020809E
:10510000A0802082403C10BD01464FF43F42B1F8E0
:1051100040009043A1F84000002070472DE9F0477F
:1051200006460C466078012872D12169A069884240
:1051300001D9256900E0A569207BA0B9ABB2E2885E
:105140003046616900F05DFD00BF3046B6F8502082
:1051500010442278022303EBC20200F5806303EBC4
:1051600042010D80C1E2E078022870D12169206AF5
:1051700088426DD900BF2178490036F8111048F6F1
:105180008F7201EA020040F4004141F4C0712278BC
:10519000520026F8121000BF206A401B20622078BF
:1051A000400036F8100000F04000002874D000BF26
:1051B0003346607868BB00BF3246B6F850100A44E8
:1051C00021784FF0060909EBC10102F5806909EB6E
:1051D0004101084600BFB0F80090C9F30909A0F8E2
:1051E00000903E2D16D900BF690905F01F09B9F1DD
:1051F000000F00D1491EB0F800904FF4004A4AEA6F
:10520000812A1FFA8AFA49EA0A09A0F800901CE0EC
:1052100081E21EE035B9B0F8009049F40049A0F8E9
:10522000009012E000BF690805F00109B9F1000F14
:1052300000D0491CB0F800904FF6FF7A0AEA812AA4
:1052400049EA0A09A0F8009000BF00BF11E07EE122
:1052500053E1607801280CD1B6F85000034420785F
:10526000062101EBC00003F5806101EB400CACF8B6
:10527000005000BF6789ABB23A463046616900F022
:10528000C0FC6069284460612169206A884204D9B1
:10529000206A401B206203E05EE0256A0020206255
:1052A00000BF6078E0BB00BF3246B6F850100A4439
:1052B0002178022303EBC10102F5806303EB410176
:1052C000084600BF0388C3F3090303803E2D10D9AD
:1052D00000BF690905F01F0303B9491E03884FF495
:1052E000004C4CEA812C1FFA8CFC43EA0C0303802F
:1052F00014E025B9038843F4004303800EE000BFA7
:10530000690805F0010303B1491C03884FF6FF7CCF
:105310000CEA812C43EA0C03038000BF00BF12E0BB
:10532000FFE7607801280ED100BF3046B6F8502064
:1053300010442278022303EBC20200F5806303EBE2
:1053400042010D8000BF00BF2789ABB23A4630460C
:10535000616900F056FCC8E100BF6078E0BB00BFA7
:105360003246B6F850100A442178022303EBC101FB
:1053700002F5806303EB4101084600BF0388C3F3D5
:10538000090303803E2D10D900BF690905F01F03F2
:1053900003B9491E03884FF4004C4CEA812C1FFAD4
:1053A0008CFC43EA0C03038014E025B9038843F422
:1053B000004303800EE000BF690805F0010303B15C
:1053C000491C03884FF6FF7C0CEA812C43EA0C034E
:1053D000038000BF00BF12E0FFE7607801280ED114
:1053E00000BF3046B6F8502010442278022303EB69
:1053F000C20200F5806303EB42010D8000BF00BFD5
:105400002789ABB23A463046616900F0FAFB606921
:10541000284460612169206A884203D9206A401BC0
:10542000206202E0256A0020206200BF33466078D7
:10543000A0BB00BF3246B6F850100A4421784FF0A6
:10544000060909EBC10102F5806909EB4101084633
:1054500000BFB0F80090C9F30909A0F800903E2DF4
:1054600014D900BF690905F01F09B9F1000F00D177
:10547000491EB0F800904FF4004A4AEA812A1FFA08
:105480008AFA49EA0A09A0F800901BE03DB9B0F891
:10549000009049F40049A0F8009013E014E000BF28
:1054A000690805F00109B9F1000F00D0491CB0F8F6
:1054B00000904FF6FF7A0AEA812A49EA0A09A0F821
:1054C000009000BF00BF0FE0607801280CD1B6F853
:1054D000500003442078062101EBC00003F58061F1
:1054E00001EB400CACF8005000BF6789ABB23A4604
:1054F0003046616900F085FBF7E0256A00BF21783E
:10550000490036F8111048F68F6201EA020040F4B3
:10551000004141F080012278520026F8121000BFAD
:1055200000BF3046B6F8502010442278022303EB27
:10553000C20200F5806303EB42010D8000BF2789A2
:10554000ABB23A463046616900F05BFBCDE0206AC1
:10555000401B20622078400036F8100000F0400028
:1055600080B300BF3346607868BB00BF3246B6F8F0
:1055700050100A4421784FF0060909EBC10102F5E9
:10558000806909EB4101084600BFB0F80090C9F3FB
:105590000909A0F800903E2D16D900BF690905F051
:1055A0001F09B9F1000F00D1491EB0F800904FF467
:1055B000004A4AEA812A1FFA8AFA49EA0A09A0F847
:1055C00000901CE036E01CE035B9B0F8009049F4DA
:1055D0000049A0F8009012E000BF690805F0010939
:1055E000B9F1000F00D0491CB0F800904FF6FF7AD7
:1055F0000AEA812A49EA0A09A0F8009000BF00BF20
:105600000FE0607801280CD1B6F8500003442078F0
:10561000062101EBC00003F5806101EB400CACF802
:10562000005000BF6789ABB23A463046616900F06E
:10563000E8FA5AE000BF6078E0BB00BF3246B6F837
:1056400050100A442178022303EBC10102F5806364
:1056500003EB4101084600BF0388C3F3090303803D
:105660003E2D10D900BF690905F01F0303B9491E7B
:1056700003884FF4004C4CEA812C1FFA8CFC43EA5F
:105680000C03038014E025B9038843F4004303802E
:105690000EE000BF690805F0010303B1491C03884F
:1056A0004FF6FF7C0CEA812C43EA0C03038000BF19
:1056B00000BF12E0FFE7607801280ED100BF30463E
:1056C000B6F8502010442278022303EBC20200F502
:1056D000806303EB42010D8000BF00BF2789ABB29E
:1056E0003A463046616900F08CFA00BF21784900E3
:1056F00036F8111048F6BF7201EA020080F010007F
:1057000080F0200040F4004141F0800122785200F6
:1057100026F8121028E2207B88BB2169A069884204
:1057200004D92569A069401BA06102E0A569002099
:10573000A06100BF3246B6F850100A442178062313
:1057400003EBC10102F5806303EB4101084600BF92
:105750000388C3F3090303803E2D11D900BF6909F3
:1057600005F01F0303B9491E03884FF4004C4CEAAF
:10577000812C1FFA8CFC43EA0C03038015E016E031
:1057800025B9038843F4004303800EE000BF690895
:1057900005F0010303B1491C03884FF6FF7C0CEAB6
:1057A000812C43EA0C03038000BF00BFC6E1E07810
:1057B00002287CD100BF00BF607878BB00BF3246B2
:1057C000B6F850100A442178022303EBC10102F518
:1057D000806303EB4101084600BF0388C3F309035C
:1057E000038023693E2B12D900BF23695909237C0A
:1057F00003F01F0303B9491E03884FF4004C4CEA21
:10580000812C1FFA8CFC43EA0C03038018E0236907
:105810002BB9038843F40043038011E012E000BF7A
:1058200023695908237C03F0010303B1491C038851
:105830004FF6FF7C0CEA812C43EA0C03038000BF87
:1058400000BF12E0607801280FD100BF3046B6F8E3
:10585000502010442278022303EBC20200F580633B
:1058600003EB4201228A0A8000BF00BF00BF33461B
:105870006078B0BB00BF3246B6F850100A442178B9
:105880004FF0060909EBC10102F5806909EB4101FE
:10589000084600BFB0F80090C9F30909A0F80090CD
:1058A000D4F81090B9F13E0F1CD900BF00E07BE0A6
:1058B000D4F810904FEA591194F8109009F01F098C
:1058C000B9F1000F00D1491EB0F800904FF4004A22
:1058D0004AEA812A1FFA8AFA49EA0A09A0F80090DE
:1058E00024E025E0D4F81090B9F1000F06D1B0F80B
:1058F000009049F40049A0F8009017E000BFD4F8E8
:1059000010904FEA590194F8109009F00109B9F18B
:10591000000F00D0491CB0F800904FF6FF7A0AEA59
:10592000812A49EA0A09A0F8009000BF00BF10E0F0
:10593000607801280DD1B6F8500003442078062184
:1059400001EBC00003F5806101EB400C208AACF84C
:10595000000000BF00BFE069002824D0207840008C
:1059600036F8108008F4804010B108F0400038B9D3
:1059700008F48040002816D108F04000002812D119
:1059800000BF00BF2178490036F8111048F68F7229
:1059900001EA020040F4004141F0C00122785200C7
:1059A00026F8121000BFC9E0E07801287ED12169F5
:1059B000A069884204D92569A069401BA06102E062
:1059C000A5690020A06100BF00BF6078E0BB00BFF8
:1059D0003246B6F850100A442178022303EBC10185
:1059E00002F5806303EB4101084600BF0388C3F35F
:1059F000090303803E2D10D900BF690905F01F037C
:105A000003B9491E03884FF4004C4CEA812C1FFA5D
:105A10008CFC43EA0C03038014E025B9038843F4AB
:105A2000004303800EE000BF690805F0010303B1E5
:105A3000491C03884FF6FF7C0CEA812C43EA0C03D7
:105A4000038000BF00BF12E0FFE7607801280ED19D
:105A500000BF3046B6F8502010442278022303EBF2
:105A6000C20200F5806303EB42010D8000BF00BF5E
:105A700000BF3346607870BB00BF3246B6F85010A6
:105A80000A4421784FF0060909EBC10102F580694B
:105A900009EB4101084600BFB0F80090C9F30909BD
:105AA000A0F800903E2D17D900BF00E043E069093F
:105AB00005F01F09B9F1000F00D1491EB0F80090A0
:105AC0004FF4004A4AEA812A1FFA8AFA49EA0A0987
:105AD000A0F800901BE01CE035B9B0F8009049F444
